:1000000012C02CC02BC02BC029C028C027C026C0BE
:1000100025C024C023C06DC021C020C01FC01EC089
:100020001DC01CC01BC011241FBECFE5D4E0DEBF25
:10003000CDBF10E0A0E6B0E0EEEBFFE102C005901E
:100040000D92A639B107D9F713E0A6E9B0E001C0D7
:100050001D92A130B107E1F7BED1AFCFD1CF1F9232
:100060000F920FB60F9211242F938F939F93EF93BC
:10007000FF9314BCE0919C00F0919D00EC50FF4F69
:10008000808190E09BBD8ABD80919500823040F0D8
:10009000E0919C00F0919D00EC50FF4F818107C0E2
:1000A000E0919C00F0919D00EC50FF4F808190E02A
:1000B00099BD88BD80919C0090919D0021E08E3F6C
:1000C000920728F010929D0010929C0008C0209189
:1000D0009500820F911D90939D0080939C00FF914D
:1000E000EF919F918F912F910F900FBE0F901F90C6
:1000F00018951F920F920FB60F9211242F933F93D2
:100100004F935F936F937F938F939F93AF93BF931F
:10011000CF93EF93FF9310929900CCB180919A0006
:100120008130D1F1813020F0823009F07DC073C080
:10013000C33561F4E4EFF2E0CF010D961192E817B8
:10014000F907E1F781E080939A006EC0C23521F48F
:100150008EE080939B0068C0CF3421F481E08093CF
:10016000960062C080919B008A3119F0813009F0BD
:100170005BC0C23421F481E08093990055C0C03542
:1001800021F482E0809399004FC0CE3409F04CC036
:1001900083E08093990048C0C83049F4809198006A
:1001A000882309F441C08150809398003DC0CC332E
:1001B00019F410929A0038C0CE3259F0809198000C
:1001C000E4EFF2E0E80FF11DC0838F5F80939800A9
:1001D0002BC080919800E4EFF2E0E80FF11D8EE271
:1001E000808387E5818381E4828386E5838310921F
:1001F000980081E08093970080919600882339F0E1
:1002000084EF92E0E1DD8AE0DBDD8DE0D9DD82E0A4
:1002100080939A0009C0C63439F48FEF8093970019
:1002200010929A001092980080919600882331F0E5
:100230008C2FC6DD8AE0C4DD8DE0C2DDFF91EF9139
:10024000CF91BF91AF919F918F917F916F915F916E
:100250004F913F912F910F900FBE0F901F901895C7
:10026000FC0112861186168215821086178213826F
:1002700012821182108214820895FC018581968178
:100280000196968385830895FC0180819181019771
:10029000918380830895CF93DF93EC01FB01468126
:1002A00050E060E070E0762F652F542F4427858161
:1002B00090E0A0E0B0E0DC0199278827482B592B7B
:1002C0006A2B7B2B848190E0A0E0B0E0B82FAA27B6
:1002D00099278827842B952BA62BB72B072E79E0FF
:1002E000B695A795979587957A95D1F7702D9983AF
:1002F0008883DF91CF910895CF93DF93EC01FB01C9
:10030000868980939500918D80E0208D30E0822B4E
:10031000932B9B838A839C0140E050E060E874E863
:100320008EE190E02FDE2F5F2C83DF91CF91089537
:10033000829B06C0839B06C0849906C083E0089513
:1003400081E0089582E0089580E00895CF93DF93DF
:10035000EC016881662359F434C06D91C90101969E
:10036000A901662359F4772371F58FEF31C0DC01C1
:10037000119621E030E040E050E001C09C016E3277
:10038000D9F4FE01E40FF51F8181873551F4FE0198
:10039000E40FF51F9281913421F48381863561F455
:1003A00014C0873749F4FE01E40FF51F82818136BE
:1003B00019F48381863759F0722F2D30310569F693
:1003C00007C08FEF05C080E003C081E001C081E07D
:1003D000DF91CF910895CF93DF93CDB7DEB76297CA
:1003E0000FB6F894DEBF0FBECDBFCE01019638DF49
:1003F0001C863324CC24DD24C39400E010E00F2EAF
:10040000F4EFEF2EF0E0FF2EF02D0F2EF1EEAF2ED9
:10041000F0E0BF2EF02D0F2EF3EE8F2EF0E09F2E8A
:10042000F02D0F2EF1EA4F2EF0E05F2EF02D0F2E63
:10043000FAEA6F2EF0E07F2EF02D24EF32E0235FFA
:100440003F4F388B2F87A201475F5F4F5E874D87F5
:10045000498B5A8B80919B00843109F46DC08531A2
:1004600098F48A3009F416C28B3028F4882319F1E5
:10047000813091F748C08D3009F44DC28E3009F4B7
:1004800074C28C3049F766C2893109F442C18A319D
:1004900048F4873109F485C0883108F091C086316D
:1004A000D9F66FC08C3109F479C18F3F09F480C24D
:1004B0008A3191F643C18D9AB99ABA9AC198C29875
:1004C000929A939A949A0F2EF5E02F2EF02D8FEF9B
:1004D00093EDA0E381509040A040E1F700C0000000
:1004E00087EB90E0B6D78093F300882321F481E076
:1004F00080939B0005C09FEF90939B002A9439F74F
:1005000057DC7894A7CF959813DF382E882321F4F1
:1005100080919900882329F01092990084E18093BA
:100520009B0080919700813009F094CF1092970042
:100530008AE080939B008ECFC40160E670E0CEDA43
:100540008093F300882321F08FEF80939B0082CF6C
:10055000C401B2011BDB8093F300882321F08FEFED
:1005600080939B0077CFC301F1DE813021F4CE016F
:10057000019683DEEDCF8F3F59F786E180939B0094
:1005800069CFC40160E670E0A9DA8093F3008823A4
:1005900021F08FEF80939B005DCF87E180939B00DC
:1005A00059CFC401B201F2DA8093F300882321F01D
:1005B0008FEF80939B004ECF88E180939B004ACFC2
:1005C000C301C4DE813009F0A0C00F5F1F4F0C15BE
:1005D0001D0509F096C0C30103D9C70160E072E0B0
:1005E000A5018CD9CE010196B70186DECE01019618
:1005F000B70151DEC70160E072E0A5017FD98091AB
:100600009600882309F478C0C301DEDB8AE0D8DBDA
:100610008DE0D6DB81E690E0D7DB8B819C810F2ECD
:10062000F0E1CF2EF7E2DF2EF02DB60175DC862F3C
:10063000805DC6DB8B819C81B6016EDC0F2EF8EEEF
:10064000CF2EF3E0DF2EF02DB60166DC862F805D25
:10065000B7DB8B819C81B6015FDC0F2EF4E6CF2ED9
:10066000DD24F02DB60158DC862F805DA9DB8B815F
:100670009C81B60151DC0F2EFAE0CF2EDD24F02D47
:10068000B6014ADC862F805D9BDB8B819C81B601A5
:1006900043DC805D95DB8AE093DB8DE091DB80E7D6
:1006A00090E092DB80919500805D8ADB8AE088DBB8
:1006B0008DE086DB88E790E087DB8D810F2EF4E606
:1006C000CF2EF02D6C2D1CDC805D7ADB8D816C2DA6
:1006D00017DC892F0F2EFAE0CF2EF02D6C2D10DCB9
:1006E000805D6EDB8D816C2D0BDC892F805D68DB7E
:1006F0008AE066DB8DE064DB89E180939B00680122
:10070000A9CE87E180939B00A5CE87E180939B00D3
:10071000A1CE85B5826085BD89B7806889BF8D818E
:1007200083BD8FB5816A8FBD8EB589608EBD959A68
:100730008AE180939B00A1E0AC878CCE80919C00E5
:1007400090919D00B1E08D3F9B0740F0C70160E0B4
:1007500072E0A501D3D8CE01019696DD89819A81F8
:10076000009741F40894C11CD11C86E180939B0042
:1007700000E010E0DDDD382E882321F4809199001F
:10078000882319F08CE180939B0080919700813041
:1007900009F060CE8AE080939B005CCEE1E03E16DB
:1007A00021F080919900813009F510929900013073
:1007B000110531F4CE80DF8086E180939B0007C075
:1007C00068010894C108D10886E180939B0089B72D
:1007D0008F7789BF2FEF33EC49E021503040404004
:1007E000E1F700C0000000E010E034CE32E0331644
:1007F00011F0823029F5109299004C85442371F054
:1008000089B78F7789BF8FEF93ECA9E08150904033
:10081000A040E1F700C000001C860EC02FEF33ECB3
:1008200049E0215030404040E1F700C0000089B766
:10083000806889BF31E03C878AE180939B000ACEC3
:1008400043E0341619F0833009F004CE1092990079
:100850008E819F818017910739F486E180939B00F8
:10086000CC24DD24C39407C068010894C11CD11CAA
:1008700086E180939B0089B78F7789BF8FEF93ECD8
:10088000A9E081509040A040E1F700C0000000E0E6
:1008900010E0E0CDE4EFF2E0A8E8B0E081918D93C4
:1008A0002F853889E217F307C9F783E890E098D7D6
:1008B0008093F300882341F085E482DA81E080931D
:1008C0009B0010929A00C6CDC70160E072E0A501BE
:1008D00015D8CE010196B7010FDDCE010196B70103
:1008E000DADCC70160E072E0A50108D885B5826056
:1008F00085BD89B7806889BF8D8183BD8FB5816AC9
:100900008FBD8EB589608EBD959A8DE080939B00DA
:1009100031E03C879FCD80919C0090919D0041E00B
:100920008D3F940740F0C70160E072E0A501E6D773
:10093000CE010196A9DC89819A81009729F08091E6
:1009400097008F3F09F086CD8CE080939B0000E0FC
:1009500010E080CD86E434DA81E080939B00109231
:100960009A0089B78F7789BF75CDC4016EE770E0B3
:10097000B5D88093F300882341F085E421DA81E043
:1009800080939B0010929A0065CDC401B201FED8FD
:1009900089899A8919DA8AE013DA8DE011DAAD854E
:1009A000BE858C91882389F781E080939B0052CD8E
:1009B00090E282B3892782BB2FEF35EA4EE02150C7
:1009C00030404040E1F700C00000F3CFCF92DF920B
:1009D000EF92FF92CF93C82F6A017B01882344F4E2
:1009E00087E740E050E0BA01F1DF8230E8F5CF77E9
:1009F000C09A8FEF8FB9779BFECF8FB1C0988FEFE2
:100A00008FB9779BFECF8FB1CFB9779BFECF8F2D5C
:100A10009927AA27BB278FB9779BFECFC701AA27A3
:100A2000BB278FB9779BFECFBB27AF2D9E2D8D2D7A
:100A30008FB9779BFECFCFB8779BFECFC03421F024
:100A4000C83421F081E003C085E901C087E88FB98F
:100A5000779BFECF9AE02FEF2FB9779BFECF8FB118
:100A6000882314F49150C1F7CF91FF90EF90DF905D
:100A7000CF900895CF92DF92EF92FF920F931F9342
:100A8000CF93DF9300D000D0CDB7DEB7E0D9C09AC6
:100A90008AE09FEF9FB9779BFECF2FB18150D1F7AE
:100AA00080E440E050E0BA0191DF813009F08EC06F
:100AB00088E44AEA51E060E070E088DF813009F0C4
:100AC00051C06E010894C11CD11C0F2EF5E0EF2E11
:100AD000FF24F02DEC0EFD1EF6019FEF9FB9779BD2
:100AE000FECF8FB18193EE15FF05C1F78B81813069
:100AF00009F06EC08C818A3A61F0FF247AC08FE8D9
:100B000091E00197F1F700C000000150104019F486
:100B100061C000E117E289EE40E050E060E070E47F
:100B200055DF882361F70115110509F455C08AE7DF
:100B300040E050E0BA014ADF882309F04FC08FEF50
:100B40008FB9779BFECF9FB1F60191936F01EE169F
:100B5000FF06B1F7898186FF43C00F2EFCE0FF2E10
:100B6000F02D47C089EE40E050E0BA012FDF82301F
:100B700040F4FF246894F1F80F2EF9EEEF2EF02DDB
:100B800006C0FF24F3940F2EF1E4EF2EF02D00E1C8
:100B900017E209C08FE891E00197F1F700C000006B
:100BA0000150104009F18E2D40E050E0BA010EDFF7
:100BB000882381F701151105C9F080E540E052E076
:100BC00060E070E003DF882399F413C0FF2411C0B4
:100BD000FF240FC0FF240DC0FF240BC0FF2409C059
:100BE000FF246894F2F805C0FF2403C0FF2401C06D
:100BF000FF24F0929E00C09A8FEF8FB9779BFECFB3
:100C00008FB181E0F11080E00F900F900F900F9066
:100C1000DF91CF911F910F91FF90EF90DF90CF90D8
:100C20000895EF92FF920F931F93CF93DF93EC0100
:100C3000790180919E0083FD09C0032E39E0440FA5
:100C4000551F661F771F3A95D1F7302D81E5BEDE1F
:100C5000882309F03BC080E49CE93FEF3FB9779BD4
:100C6000FECF2FB12F3F21F40197C1F781E031C0B2
:100C70002E3F71F582E092E08E199F09801B910B47
:100C8000E114F10459F02FEF2FB9779BFECF3FB15C
:100C90000894E108F108E114F104B1F7209751F04C
:100CA0003FEF3FB9779BFECF2FB129930150104002
:100CB000C1F703C001501040E9F72FEF2FB9779B20
:100CC000FECF3FB10197D1F780E003C081E001C0C2
:100CD00081E0C09A9FEF9FB9779BFECF9FB1DF91D4
:100CE000CF911F910F91FF90EF9008950F931F9355
:100CF000CF93DF93C0919F00D091A00062507040CD
:100D0000804090400E811F81288539850250104017
:100D100020403040601771078207930780F42A81D2
:100D200030E040E050E0CDD88B019C018A899B895E
:100D3000AC89BD89080F191F2A1F3B1F03C000E0A3
:100D400010E09801602F712F822F932FDF91CF91A8
:100D50001F910F910895CF93DF93EC01E0919F00D5
:100D6000F091A000198218828C819D81AE81BF8193
:100D700081309105A105B10561F1468157816085FA
:100D8000718584179507A607B70728F50097A10571
:100D9000B10529F58081833039F586859785A0894D
:100DA000B18988879987AA87BB870097A105B10574
:100DB00031F0BC01CD019ADFDC01CB0104C0868596
:100DC0009785A089B1898C879D87AE87BF8780E092
:100DD00003C081E001C081E0DF91CF910895888751
:100DE0009987AA87BB87E5CF188619861A861B863E
:100DF000E6CF4F925F926F927F92AF92BF92CF9267
:100E0000DF92EF92FF920F931F93CF93DF9300D067
:100E100000D0CDB7DEB76B017C01A0909F00B090F1
:100E2000A000623071058105910508F4ECC0F50160
:100E300086819781A085B185C816D906EA06FB068A
:100E400008F0E6C08081823009F470C0833009F474
:100E500092C0813009F0E1C0A601569547954C0D2E
:100E60005D1D9A013170452F55274695F1E02F3FC2
:100E70003F07A1F0CA01A0E0B0E0F501428553852B
:100E800064857585480F591F6A1F7B1FCE01019627
:100E900002E010E0C6DE882361F1C4C02A016624A6
:100EA0007724F5014285538564857585440D551D6C
:100EB000661D771DCE0101962FEF31E001E010E0B5
:100EC000B0DE882309F0B3C0F501428553856485FF
:100ED00075854F5F5F4F6F4F7F4F440D551D661DEA
:100EE000771DCE01029620E030E09BDE882309F0DA
:100EF000A3C03A8120E0898190E0822B932BF1E01E
:100F0000CF22DD24C114D10451F0929582958F70C7
:100F100089279F7089278C0120E030E09BC08C01DD
:100F200020E030E01F702070307094C0BB27AF2DE0
:100F30009E2D8D2DF5014285538564857585480F5D
:100F4000591F6A1F7B1FFFEFCF22DD249601220F5E
:100F5000331FCE01019602E010E063DE882309F022
:100F600070C09A8180E0098110E0802B912B8C0168
:100F700020E030E06FC0D701C601689416F8B6953E
:100F8000A795979587951694D1F7F50142855385D6
:100F900064857585480F591F6A1F7B1FFFE7CF22A5
:100FA000DD249601220F331F220F331FCE0101963D
:100FB00004E010E036DE882309F048C00C8110E020
:100FC00020E030E0302F2227112700278B8190E08E
:100FD000A0E0B0E0DC0199278827082B192B2A2BE9
:100FE0003B2B898190E0A0E0B0E0082B192B2A2B45
:100FF0003B2B9A8180E0A0E0B0E0082B192B2A2B34
:101000003B2B3F7027C001E010E020E030E022C021
:1010100001E010E020E030E01DC001E010E020E041
:1010200030E018C001E010E020E030E013C001E043
:1010300010E020E030E00EC001E010E020E030E001
:1010400009C001E010E020E030E004C001E010E061
:1010500020E030E0602F712F822F932F0F900F90A0
:101060000F900F90DF91CF911F910F91FF90EF9014
:10107000DF90CF90BF90AF907F906F905F904F9038
:101080000895EF92FF920F931F93CF93DF93EC019C
:10109000E0909F00F090A000088119810F5F1F4F22
:1010A00009F45BC08C859D85AE85BF850097A10541
:1010B000B10509F454C098012F7030702115310525
:1010C00009F047C00196A11DB11D8C879D87AE8791
:1010D000BF87488559856A857B854115510561051E
:1010E000710539F4F7018481958108171907C8F54E
:1010F00030C0F701828190E00197980132952295E6
:101100002F7023273F70232782239323009709F50D
:10111000CB01BA016EDEAB01BC0142305105610565
:10112000710508F1F70186819781A085B18548177F
:1011300059076A077B07C8F4488759876A877B87FE
:10114000CB01BA01D3DDDC01CB018C879D87AE8753
:10115000BF871983088380E009C083E007C083E06C
:1011600005C083E003C081E001C083E0DF91CF913F
:101170001F910F91FF90EF9008952F923F924F9201
:101180005F926F927F928F929F92AF92BF92CF9217
:10119000DF92EF92FF920F931F93CF93DF9300D0D4
:1011A00000D0CDB7DEB76C017B014A01DA018C912A
:1011B000803241F4FA0131960894811C911C81918E
:1011C0008032D1F38F3219F40894811C911CF601FE
:1011D0001482158216821782D4018C91813230F4E8
:1011E000C601B9DD982FF7011082BDC06624F8E072
:1011F000FB83442443940F2EFBE0AF2EBB24F02D41
:10120000AE0CBF1C742C562CF601A281B381CD010B
:101210000B96FD0120E22193E817F907D9F7862DF7
:1012200098E0482FF401E40FF11D20814F5F213237
:10123000C0F02F32B1F02E3211F0891738F098300B
:1012400081F42E3271F48B819BE0ECCF322F31563A
:101250003A3108F42052FD01E80FF11D20838F5F21
:10126000E1CF142F842D213208F0862D1B968C930C
:10127000C60171DD982F8823E1F51C83D6011C96E9
:101280004D915D916D917C911F972D913C912F70A7
:101290003070220F331F22953295307F3227207F06
:1012A0003227C70100E210E0BCDC972D882309F447
:1012B000952D9923F1F4F70180818823E1F033859E
:1012C00033FD12C0D60112964D915C911397DA014D
:1012D0001C81292F04C0EA15FB0509F45CC091911B
:1012E0008D919817C1F31C83C601CBDE982F8823FC
:1012F00029F29330C1F5D6011296ED91FC91139726
:101300008385882369F193E02EC034FF2BC0810EC2
:10131000911CF701F589FA831982D70154968C91B3
:1013200090E0E981FA818E2B9F2BA0E0B0E0BC0118
:1013300055274427D7015B963C905B9722245A9609
:101340008C9190E082299329A0E0B0E0842B952B2A
:10135000A62BB72BF60184839583A683B78354CF3E
:1013600094E001C094E0892F0F900F900F900F90A0
:10137000DF91CF911F910F91FF90EF90DF90CF9071
:10138000BF90AF909F908F907F906F905F904F90A5
:101390003F902F900895922FDA011B968C911B9706
:1013A000882309F4B2CFDFCFCF92DF92EF92FF9282
:1013B0000F931F93CF93DF93EC016A017B012EEF14
:1013C00031E002E010E02DDC882399F5398120E03E
:1013D000888190E0822B932B2AEA8535920759F574
:1013E000CE01B701A60126E330E01BDC882351F4CF
:1013F000398120E0888190E0822B932B21E4863490
:101400009207D9F0CE01B701A60122E530E002E053
:1014100010E007DC882399F4998180E0288130E08E
:10142000282B392B81E091E42634390749F480E0F8
:1014300007C083E005C082E003C080E001C081E016
:10144000DF91CF911F910F91FF90EF90DF90CF90A0
:1014500008954F925F926F927F928F929F92AF9278
:10146000BF92EF92FF920F931F93CF93DF93CDB76D
:10147000DEB7AC970FB6F894DEBF0FBECDBF7C01D0
:101480001092A00010929F00009709F483C1F2DA35
:1014900080FD82C1CE01019640E050E0BA0184DFB8
:1014A0008130D9F5CE01019640E050E0BA012EEB33
:1014B00031E000E110E0B5DB882309F06FC18D81D8
:1014C000882309F46DC14C8550E060E070E0742F12
:1014D0006627552744278B8590E0A0E0B0E0DC012B
:1014E00099278827482B592B6A2B7B2B898590E0DD
:1014F000A0E0B0E0482B592B6A2B7B2B9A8580E02B
:101500004C01AA24BB24842A952AA62AB72ACE01F4
:101510000196B501A40148DF03C088249924540131
:10152000833009F43FC1882309F03EC1CE01019602
:10153000B501A4012DE030E004E210E072DB882365
:1015400009F034C19B8580E06A8570E0682B792BB7
:1015500080E090E0611571058105910539F54B8DAD
:1015600050E060E070E0742F6627552744278A8D8D
:1015700090E0A0E0B0E0DC0199278827482B592BA8
:101580006A2B7B2B888D90E0A0E0B0E0482B592B94
:101590006A2B7B2B998D80E0A0E0B0E08A019B0153
:1015A000082B192B2A2B3B2BC901B8012C8130E0C9
:1015B00040E050E086D42B013C013B8120E08A8151
:1015C00090E0822B932B9C0140E050E02DA33EA3A2
:1015D0004FA358A7820E931EA41EB51ED7011A96BC
:1015E0008D929D92AD92BC921D97E9811296EC93DB
:1015F00012973E8120E08D8190E0282B392B1596A3
:101600003C932E931497988580E04F8150E0482BAF
:10161000592B60E070E0411551056105710519F520
:101620008F8990E0A0E0B0E0782F66275527442707
:101630008E8990E0A0E0B0E0DC0199278827842B18
:10164000952BA62BB72B4C8950E060E070E0842BE3
:10165000952BA62BB72B5D8940E060E070E0482B0E
:10166000592B6A2B7B2BC901929582958F70892704
:101670009F7089278C0120E030E009A71AA72BA7CB
:101680003CA78DA19EA1AFA1B8A5481B590B6A0B21
:101690007B0B4419550966097709CB01BA01601B18
:1016A000710B820B930B2E2F30E040E050E048D4BA
:1016B000DA01C9010296A11DB11DF7018683978346
:1016C000A087B187873FFFE09F07F0E0AF07F0E01A
:1016D000BF0710F022E001C021E0873F0FEF900725
:1016E00000E0A00700E0B00708F076C0D7012C9317
:1016F000233049F58BA190E0A0E0B0E0782F662779
:10170000552744278AA190E0A0E0B0E0DC019927AA
:101710008827482B592B6A2B7B2B88A190E0A0E0CF
:10172000B0E0482B592B6A2B7B2B99A180E0A0E0DD
:10173000B0E0842B952BA62BB72BF70186879787D4
:10174000A08BB18B0BC0D301C201880D991DAA1DBE
:10175000BB1DF70186879787A08BB18B09A51AA5BA
:101760002BA53CA5800E911EA21EB31E480C591C31
:101770006A1C7B1CD70152964D925D926D927C92B1
:10178000559711961C921197F092A000E0929F003D
:1017900080E00DC080E00BC082E009C081E007C09E
:1017A00087E005C081E003C087E001C081E0AC961E
:1017B0000FB6F894DEBF0FBECDBFDF91CF911F9162
:1017C0000F91FF90EF90BF90AF909F908F907F9080
:1017D0006F905F904F90089583E0F70180838ACFE8
:1017E000CF92DF92EF92FF920F931F93CF93DF93ED
:1017F000CDB7DEB7EC970FB6F894DEBF0FBECDBF06
:10180000AC0100919F001091A0000115110509F491
:1018100061C0F8011182CE0141969C838B83CE0179
:101820000196BE01635E7F4FA8DC882309F057C094
:101830009D8D992309F450C098A594FD4FC05AA9D5
:1018400040E029A930E0242B352B6901EE24FF2448
:101850007601DD24CC2458AD40E02FA930E0422BA6
:10186000532B60E070E04C295D296E297F29F80137
:10187000468F578F60A371A34CAD50E060E070E0DD
:10188000742F662755274427CBACDD24EE24FF2494
:101890007601DD24CC24C42AD52AE62AF72A49ADCC
:1018A00050E060E070E0C42AD52AE62AF72A5AAD53
:1018B00040E060E070E04C295D296E297F29428F6D
:1018C000538F648F758F168A178A108E118E91E050
:1018D000918305C086E003C083E001C083E0EC96FD
:1018E0000FB6F894DEBF0FBECDBFDF91CF911F9131
:1018F0000F91FF90EF90DF90CF9008952F923F923D
:101900004F925F926F927F928F929F92AF92BF920F
:10191000CF92DF92EF92FF920F931F93CF93DF93BB
:101920002C016B014A01E0909F00F090A000FA01A9
:1019300011821082E114F10409F4B8C0F701818129
:1019400080FFB6C0828D938DA48DB58D4689578951
:10195000608D718D841B950BA60BB70BA60160E003
:1019600070E084179507A607B70708F46C01C11447
:10197000D10409F49FC0520166247724689471F859
:1019800022243324F70146895789608D718DDB014C
:10199000CA019170A070B0700097A105B10509F05F
:1019A00042C0DB01CA01072E79E0B695A79597954D
:1019B00087957A95D1F7702DC281C150C823E9F47B
:1019C000411551056105710529F4868D978DA0A1FA
:1019D000B1A108C0F70162A173A184A195A109DAA0
:1019E000DC01CB0182309105A105B10508F45AC094
:1019F000F70182A393A3A4A3B5A3F70162A173A1E6
:101A000084A195A173D9DC01CB010097A105B10593
:101A100009F448C08C0F911DA11DB11DF70186A3CB
:101A200097A3A0A7B1A7F701868997899C01317078
:101A3000C301821B930BE6018C159D0508F4EC0194
:101A40004114510419F4822D932D02C08A2D9B2D2F
:101A5000F70146A157A160A571A58E01E2D88823A0
:101A600009F5AE0160E070E0F70186899789A08DE5
:101A7000B18D840F951FA61FB71F868B978BA08FE4
:101A8000B18FAC0EBD1ECC1ADD0AF40180819181AC
:101A90008C0F9D1F91838083C114D10409F072CFF4
:101AA00080E009C0F701118281E005C086E003C033
:101AB00085E001C080E0DF91CF911F910F91FF90F1
:101AC000EF90DF90CF90BF90AF909F908F907F90DE
:101AD0006F905F904F903F902F9008950F931F93BA
:101AE000CF93DF93CDB7DEB7AC970FB6F894DEBFD8
:101AF0000FBECDBF8C01AB0180919F009091A000E3
:101B00000097B1F1CE010196F80193838283C80159
:101B1000BE01635F7F4F31DB882329F58D858823E4
:101B200001F1888D84FF22C09AA180E049A150E094
:101B3000842B952BAC0160E070E0BA015527442757
:101B400098A580E02FA130E0822B932BA0E0B0E09D
:101B5000482B592B6A2B7B2BF801448355836683D2
:101B60007783C801F8D8833029F005C084E003C02A
:101B700086E001C084E0AC960FB6F894DEBF0FBEDD
:101B8000CDBFDF91CF911F910F910895AF92BF927A
:101B9000CF92DF92EF92FF920F931F93CF93DF9339
:101BA000CDB7DEB7AC970FB6F894DEBF0FBECDBF92
:101BB0007C015B0180919F009091A000009709F447
:101BC000CEC0CE010196F701938382836115710522
:101BD00071F5C701C0D8982FC3C0F70120813181AA
:101BE0002F703070220F331F22953295307F3227AD
:101BF000207F3227CE010D9600E210E012D89D2DF5
:101C0000882309F49C2D992311F58D85882309F4E7
:101C1000B9C0288D853E29F08E3219F02F7323FF2D
:101C20001EC0C7012EDA982F882329F010C093E038
:101C3000DD24D394CC24F7014485558566857785CA
:101C4000411551056105710541F6992341F0F701F0
:101C50001486158616861786933009F4A5C0992335
:101C600009F07EC08501075F1F4FF70184859585C8
:101C7000A685B7850097A105B10509F462C02D8539
:101C8000203291F0DE011E96F801CE01459635EE28
:101C900003C02D91203241F0253009F4232F2193E8
:101CA0008F01A817B907A9F78D89803281F08EE2DC
:101CB000F80180838D89803209F066C00F5F1F4F65
:101CC00006C08C0104C0F80123830C5F1F4F888D70
:101CD000F50180878CA590E0A0E0B0E0B82FAA279E
:101CE000992788274BA550E060E070E0BA0155279E
:101CF0004427482B592B6A2B7B2B89A590E0A0E029
:101D0000B0E0482B592B6A2B7B2B9AA580E0A0E0F2
:101D1000B0E0842B952BA62BB72B80839183A283D5
:101D2000B3833EA120E08DA190E0822B932B95837D
:101D300084833CA120E08BA190E0822B932B97839E
:101D40008683F8011082C7019CD9982F833041F413
:101D5000F701148615861686178690E001C096E076
:101D6000892FAC960FB6F894DEBF0FBECDBFDF91C2
:101D7000CF911F910F91FF90EF90DF90CF90BF9088
:101D8000AF90089593E063CFF8018183C801029674
:101D90002E89203209F495CF2283C80103962F891A
:101DA000203209F090CF8DCF8501075F1F4FC9CF3B
:101DB00087E689B9599888E98AB986E880BD089587
:101DC0005D9BFECF8CB908950F931F93CF938C0129
:101DD000FC018081882349F0C0E0F2DFCF5FF80189
:101DE000EC0FF11D80818823C1F7CF911F910F91D6
:101DF00008958FEF80B9089584EA86BF06B607FE7E
:101E0000FDCF089584E986BF089583B984E886BF2D
:101E100006B607FEFDCF0895CF93DF93C82FD62FC8
:101E2000EBDF8D2FF2DF8C2FF0DFECDFDF91CF9136
:101E3000089584EC86BF06B607FEFDCF83B10895F2
:101E400084E886BF06B607FEFDCF83B1089587B349
:101E5000896287BBBC9888B3896388BB80E58DB9EC
:101E600008958FB9779BFECF08958FEF8FB9779B39
:101E7000FECF8FB108958FB9779BFECF8FB10895B4
:101E8000FB019B01280F311DC90104C021912FB90D
:101E9000779BFECFE817F907C9F70895FB01882360
:101EA00079F081509B01280F311DC90101962081D5
:101EB0002FB9779BFECF2FB12193E817F907B9F718
:101EC0000895629FD001739FF001829FE00DF11D84
:101ED000649FE00DF11D929FF00D839FF00D749FA4
:101EE000F00D659FF00D9927729FB00DE11DF91F50
:101EF000639FB00DE11DF91FBD01CF0111240895AD
:101F0000991B79E004C0991F961708F0961B881F4B
:101F10007A95C9F780950895AA1BBB1B51E107C0AC
:101F2000AA1FBB1FA617B70710F0A61BB70B881F69
:101F3000991F5A95A9F780959095BC01CD010895F8
:101F4000A1E21A2EAA1BBB1BFD010DC0AA1FBB1FBD
:101F5000EE1FFF1FA217B307E407F50720F0A21B2F
:101F6000B30BE40BF50B661F771F881F991F1A949C
:101F700069F760957095809590959B01AC01BD01C6
:101F8000CF01089597FB092E05260ED057FD04D0EA
:101F9000D7DF0AD0001C38F4509540953095219534
:101FA0003F4F4F4F5F4F0895F6F79095809570958E
:0E1FB00061957F4F8F4F9F4F0895F894FFCF9C
:101FBE000053616D706C652072617465202D200078
:101FCE004368616E202D20005443202D2000434392
:101FDE00504D004343504D2F000000000000000004
:061FEE00000000000001EC
:00000001FF
