:1000000012C02CC02BC02BC029C028C027C026C0BE
:1000100025C024C023C06DC021C020C01FC01EC089
:100020001DC01CC01BC011241FBECFE5D4E0DEBF25
:10003000CDBF10E0A0E6B0E0EEEEFDE102C005901D
:100040000D92A639B107D9F723E0A6E9B0E001C0C7
:100050001D92A130B207E1F787D1C7CED1CF1F9251
:100060000F920FB60F9211242F938F939F93EF93BC
:10007000FF9314BCE0919C00F0919D00EC50FF4F69
:10008000808190E09BBD8ABD80917200823040F0FB
:10009000E0919C00F0919D00EC50FF4F818107C0E2
:1000A000E0919C00F0919D00EC50FF4F808190E02A
:1000B00099BD88BD80919C0090919D008E3F21E06C
:1000C000920728F010929D0010929C0008C0209189
:1000D0007200820F911D90939D0080939C00FF9170
:1000E000EF919F918F912F910F900FBE0F901F90C6
:1000F00018951F920F920FB60F9211242F933F93D2
:100100004F935F936F937F938F939F93AF93BF931F
:10011000CF93EF93FF9310929900CCB180919A0006
:100120008130C9F120F0823009F473C07BC0C3353F
:1001300061F4E4EFF2E081E093E01192E817F9074F
:10014000E1F781E080939A006DC0C23521F48EE022
:1001500080939B0067C0CF3421F481E080939600A8
:1001600061C080919B008A3119F0813009F05AC03A
:10017000C23421F481E08093990054C0C03521F449
:1001800082E0809399004EC0CE3409F04BC083E0EA
:100190008093990047C0C83049F480919800882323
:1001A00009F440C08150809398003CC0CC3319F4CE
:1001B00010929A0037C0CE3259F080919800E82F03
:1001C000F0E0EC50FD4FC0838F5F809398002AC011
:1001D000E0919800F0E0EC50FD4F8EE2808387E5DF
:1001E000818381E4828386E583831092980081E095
:1001F0008093970080919600882339F084EF92E0F5
:1002000081DD8AE07BDD8DE079DD82E080939A00FC
:1002100009C0C63439F48FEF8093970010929A008A
:100220001092980080919600882331F08C2F66DD23
:100230008AE064DD8DE062DDFF91EF91CF91BF91A7
:10024000AF919F918F917F916F915F914F913F916E
:100250002F910F900FBE0F901F901895FC011286E2
:1002600011861682158210861782138212821182DD
:10027000108214820895FB012581468150E060E0E0
:1002800070E0BA0155274427522B2481422B278145
:10029000722B032E39E076956795579547953A95D9
:1002A000D1F7302DFC01518340830895CF93DF9324
:1002B000EC01FB01868980937200218D30E0322FA2
:1002C0002227808D282B3B832A8340E050E060E882
:1002D00074E88EE190E057DD2F5F2C83DF91CF91A2
:1002E0000895829B06C0839B06C0849B06C080E065
:1002F000089581E0089582E0089583E00895FC0167
:10030000208121110BC004C0219121110AC001C01C
:1003100090E081E0911180E081950895FC01319693
:1003200090E02E3299F48081873539F481818134CF
:1003300069F48281863551F40DC0873739F48181A3
:10034000813671F48281863759F406C09F5F9D30F3
:10035000D9F6089581E0089581E008952191E1CFD3
:100360009F5F9D30D9F7F5CFCF93DF93CDB7DEB741
:100370002B970FB6F894DEBF0FBECDBFCE0101960E
:100380006DDF612CB12CCC24C394D12C00E010E0A3
:10039000FF24F3940F2EF6E1AF2EF02D0F2EFAE08E
:1003A000EF2EF02D99249A940F2EF7E18F2EF02D39
:1003B0000F2EF8EE4F2EF3E05F2EF02D0F2EF2E70A
:1003C0002F2EF0E03F2EF02D80919B00843109F418
:1003D00069C098F48A3009F49BC230F4882319F17B
:1003E000813009F447C0F2CF8D3009F4D4C28E3089
:1003F00009F4FDC28C3051F7F0C2893109F4CDC146
:1004000048F4873109F485C008F093C0863109F4B7
:1004100071C0DCCF8C3109F405C28F3F09F40AC3E7
:100420008A31A1F6CEC18D9AB99ABA9AC198C2986A
:10043000929A939A949A0F2EF5E07F2EF02D2FEF3B
:1004400033ED60E3215030406040E1F700C0000030
:1004500087EB90E00AD88093F300811103C0F092FB
:100460009B0005C090929B007A947110E8CF3EDC0F
:100470007894AACF959835DFB82E811104C0809169
:100480009900882329F01092990084E180939B00C1
:1004900080919700813009F097CF10929700E092F9
:1004A0009B0092CF6FE870E083EE90E0BCDA80931F
:1004B000F300882319F090929B0086CF61EA70E0E8
:1004C00083EE90E009DB8093F300882319F090928B
:1004D0009B007ACF8AEA90E012DF813031F48E817E
:1004E0009F8101969F838E83E9CF8F3F39F7A0923A
:1004F0009B006ACF6FE870E083EE90E094DA80931F
:10050000F300882319F090929B005ECF80929B00AD
:100510005BCF61EA70E083EE90E0DEDA8093F30077
:10052000882319F090929B004FCF78E170939B0045
:100530004BCF8AEA90E0E3DE813009F02BC10F5FF8
:100540001F4F0C151D0509F022C18AEA90E00CD955
:1005500041EE50E060E072E084EF90E07BD964EF20
:1005600070E0CE010196A2DE64EF70E0CE0101964C
:1005700082DE41EE50E060E072E084EF90E06AD904
:1005800080919600882309F4FDC08AEA90E0BADBE6
:100590008E2DB4DB8DE0B2DB83E790E0B3DB2B8103
:1005A0003C81329522952F7023273F702327A7E4A3
:1005B000B3E005DC969587959695879596958795F2
:1005C000805D9CDB4B815C819A01329522952F7076
:1005D00023273F702327A7E4B3E0F1DB96958795A7
:1005E000969587959695879560E177E2869F90012D
:1005F000879F300D969F300D1124CA01821B930BEB
:100600009C01369527953695279536952795A5EC27
:10061000B0E2D5DB929582958F7089279F708927EC
:10062000805D6CDB4B815C819A0136952795369510
:10063000279536952795A5ECB0E2C1DB929582957A
:100640008F7089279F708927849D9001859D300D2B
:10065000949D300D1124BA01621B730B9B013695DA
:10066000279536952795ABE7B4E1A9DB9695879555
:10067000805D44DB4B815C819A01369527953695E8
:100680002795ABE7B4E19BDB969587950F2EF4E6B3
:10069000CF2EF02DC89E9001C99E300D1124CA01A5
:1006A000821B930B9C01ADECBCEC89DB9695879586
:1006B0009695879596958795805D20DB4B815C812B
:1006C0009A01ADECBCEC7BDB96958795969587956A
:1006D000969587959C01220F331F880F991F880FCD
:1006E000991F880F991F820F931F9A01281B390B9E
:1006F000C901805D03DB8E2D01DB8DE0FFDA82E82E
:1007000090E000DB80917200805DF8DA8E2DF6DAE1
:100710008DE0F4DA8AE890E0F5DA8D810F2EF9E2C7
:10072000DF2EF02D8D9D812D112482958F70805D9F
:10073000E5DA8D818D9D912D112492959F709C9D60
:10074000801911240F2EFDECDF2EF02D8D9D812DB3
:100750001124869586958695805DD0DA9D819D9D34
:10076000812D1124869586958695880F282F220F36
:10077000220F820F981B892F805DC0DA8E2DBEDA82
:100780008DE0BCDA39E130939B0068011DCE809288
:100790009B001ACE80929B0017CE85B5826085BDE6
:1007A00089B7806889BF8D8183BD8FB5816A8FBD10
:1007B0008EB589608EBD959A6AE160939B006F2C1F
:1007C00003CE80919C0090919D008D3F914060F000
:1007D00041EE50E060E072E084EF90E03BD8898128
:1007E0009A8101979A83898389819A81892B39F427
:1007F0008FEFC81AD80AA0929B0000E010E071DDCC
:10080000B82E811104C080919900882319F09CE1D1
:1008100090939B0080919700813009F0D5CDE092B4
:100820009B00D2CD21E0B21621F080919900813059
:10083000F9F4109299000130110529F4CE80DF807F
:10084000A0929B0006C0680131E0C31AD108A092B3
:100850009B0089B78F7789BF6FEF73EC89E0615098
:1008600070408040E1F700C0000000E010E0ACCD37
:1008700092E0B91611F0823019F5109299006620B5
:1008800071F089B78F7789BF2FEF33EC69E0215082
:1008900030406040E1F700C00000612C0DC07FEFE8
:1008A00083EC99E0715080409040E1F700C0000077
:1008B00089B7806889BF6F2C2AE120939B0084CD83
:1008C00033E0B31619F0833009F07ECD1092990011
:1008D0008E819F810817190731F4A0929B00CC24C8
:1008E000C394D12C06C068016FEFC61AD60AA09235
:1008F0009B0089B78F7789BF7FEF83EC99E07150B8
:1009000080409040E1F700C0000000E010E05CCDC6
:10091000A4EFB2E0E5E6F0E08D918193E215F305F6
:10092000D9F780E690E020D78093F300882339F050
:1009300085E4E4D9F0929B0010929A0045CD41EEF7
:1009400050E060E072E084EF90E084D764EF70E004
:10095000CE010196ABDC64EF70E0CE0101968BDC3A
:1009600041EE50E060E072E084EF90E073D785B52F
:10097000826085BD89B7806889BF8D8183BD8FB551
:10098000816A8FBD8EB589608EBD959A8DE080930A
:100990009B006F2C19CD80919C0090919D008D3F04
:1009A000914060F041EE50E060E072E084EF90E052
:1009B00051D789819A8101979A83898389819A8104
:1009C000892B29F0809197008F3F09F0FDCC8CE0B6
:1009D00080939B0000E010E0F7CC86E48FD9F09282
:1009E0009B0010929A0089B78F7789BFEDCC60E9A0
:1009F00070E083EE90E017D88093F300882339F0FD
:100A000085E47CD9F0929B0010929A00DDCC61EADB
:100A100070E083EE90E060D88AEA90E073D98E2D82
:100A20006DD98DE06BD98091AA008111F0CFF09241
:100A30009B00CACC90E282B3892782BB3FEF65EA74
:100A40007EE0315060407040E1F700C00000F3CF1D
:100A5000CF92DF92EF92FF92CF93C82F6A017B0172
:100A6000882344F440E050E0BA0187E7F1DF8230A8
:100A7000E8F5CF77C09A8FEF8FB9779BFECF8FB114
:100A8000C0988FEF8FB9779BFECF8FB1CFB9779B8F
:100A9000FECF8F2D9927AA27BB278FB9779BFECF33
:100AA000C701AA27BB278FB9779BFECFBB27AF2DE6
:100AB0009E2D8D2D8FB9779BFECFCFB8779BFECF24
:100AC000C03421F0C83421F487E803C085E901C0AF
:100AD00081E08FB9779BFECF9AE02FEF2FB9779BFC
:100AE000FECF8FB1882314F49150C1F7CF91FF90BE
:100AF000EF90DF90CF900895CF92DF92EF92FF9228
:100B00000F931F93CF93DF9300D000D0CDB7DEB704
:100B10000ED9C09A8AE09FEF9FB9779BFECF2FB185
:100B20008150D1F740E050E0BA0180E491DF81309C
:100B300009F086C04AEA51E060E070E088E488DFAE
:100B4000813009F04DC08E010F5F1F4F6E0185E0AF
:100B5000C80ED11CF8019FEF9FB9779BFECF8FB1D4
:100B60008193CE16DF06C1F78B81813009F06AC010
:100B70008C818A3A69F010E072C0EFE8F1E03197B9
:100B8000F1F700C00000F1E0EF1AF10839F45CC0A1
:100B90000F2EF0E1EF2EF7E2FF2EF02D40E050E0B7
:100BA00060E070E489EE54DF8111E7CFEF2809F4AB
:100BB0004DC040E050E0BA018AE74ADF811148C0E9
:100BC0008FEF8FB9779BFECF9FB1F80191938F0183
:100BD000EC15FD05B1F7898186FD3CC014E03FC0EE
:100BE00040E050E0BA0189EE33DF823018F011E0C6
:100BF00001E402C012E009EE0F2EF0E1EF2EF7E261
:100C0000FF2EF02D0AC08FE891E00197F1F700C0A8
:100C1000000091E0E91AF108F9F040E050E0BA0173
:100C2000802F16DF8111EFCFEF28C1F040E052E0B6
:100C300060E070E080E50CDF882389F010E00FC0F1
:100C400010E00DC010E00BC010E009C010E007C0BC
:100C500010E005C01CE003C010E001C010E01093DC
:100C60009E00C09A8FEF8FB9779BFECF8FB181E046
:100C7000111180E00F900F900F900F90DF91CF91A6
:100C80001F910F91FF90EF90DF90CF900895EF921A
:100C9000FF920F931F93CF93DF937C01E901809123
:100CA0009E0083FD09C0032E39E0440F551F661FC7
:100CB000771F3A95D1F7302D81E5CADE81113AC010
:100CC00080E49CE93FEF3FB9779BFECF2FB12F3FE8
:100CD00021F40197C1F781E030C02E3F69F582E031
:100CE00092E0801B910B8C1B9D0B209739F02FEF0E
:100CF0002FB9779BFECF3FB12197D1F7E114F104D3
:100D000069F0F7010E0D1F1D3FEF3FB9779BFECF36
:100D10002FB121930E171F07C1F703C0015011090E
:100D2000E9F72FEF2FB9779BFECF3FB10197D1F7AE
:100D300080E003C081E001C081E0C09A9FEF9FB9CD
:100D4000779BFECF9FB1DF91CF911F910F91FF90C5
:100D5000EF9008950F931F93E0919F00F091A000F2
:100D60009B01AC01225031094109510986819781CB
:100D7000A085B1850297A109B109281739074A074B
:100D80005B0760F4A281B0E026D802891389248928
:100D90003589600F711F821F931F03C060E070E0F0
:100DA000CB011F910F9108950F931F93CF93DF9362
:100DB000FC01A0919F00B091A0001182108264817B
:100DC000758186819781613071058105910589F171
:100DD00016960D911D912D913C91199760177107F1
:100DE0008207930740F5EF016115710581059105B3
:100DF00021F58C91833031F51E966D917D918D9109
:100E00009C915197608771878287938761157105DF
:100E10008105910511F09EDF06C01E966D917D91B2
:100E20008D919C9151976C877D878E879F8780E0FD
:100E30000EC081E00CC081E00AC0608771878287A4
:100E40009387E9CF1086118612861386E6CFDF914D
:100E5000CF911F910F910895CF92DF92EF92FF9261
:100E60000F931F93CF93DF93EC016A017B0102E0A4
:100E700010E02EEF31E00BDF811130C0898190E06E
:100E8000982F88272881822B85359A4A49F526E3B1
:100E900030E0B701A601CE01FADE811109C08981D7
:100EA00090E0982F88272881822B86349144D1F0B6
:100EB00002E010E022E530E0B701A601CE01E7DE56
:100EC000811112C0298130E0322F22278881282BFE
:100ED00081E02634314449F480E007C083E005C056
:100EE00082E003C080E001C081E0DF91CF911F91DB
:100EF0000F91FF90EF90DF90CF9008954F925F9207
:100F00006F927F928F929F92AF92BF92EF92FF92D9
:100F10000F931F93CF93DF9300D000D0CDB7DEB7F0
:100F2000623071058105910508F4D9C0E0909F00F9
:100F3000F090A000F70186809780A084B1846815A6
:100F400079058A059B0508F0CFC04B015C018081C3
:100F5000823009F464C0833009F482C0813009F022
:100F6000C8C0240156944794480C591C9201317012
:100F7000452C552446942F3FF1E03F0789F0F701B7
:100F80004285538564857585440D551D611D711D10
:100F900002E010E0CE0101967ADE882349F1AEC06E
:100FA000612C712CF7014285538564857585440D4C
:100FB000551D661D771D01E010E02FEF31E0CE01D9
:100FC000019665DE81119FC0F701428553856485D6
:100FD00075854F5F5F4F6F4F7F4F440D551D661DE9
:100FE000771D20E030E0CE01029651DE811190C0E5
:100FF0008A8190E0982F88272981822B80FE0AC061
:10100000BC01729562956F7067277F70672780E0DB
:1010100090E08CC0BC017F7080E090E087C09401BC
:101020003327220F331F77276B2D5A2D492DF701B8
:1010300082859385A485B585480F591F6A1F7B1F3C
:1010400002E010E0CE01019622DE811166C06A81C5
:1010500070E0762F66278981682B80E090E066C07B
:1010600094012F773327220F331F220F331FD5010F
:10107000C401689416F8B695A79597958795169428
:10108000D1F7F70182849384A484B584AC01BD01B7
:10109000480D591D6A1D7B1D04E010E0CE0101962C
:1010A000F6DD81113FC02C816B81862F90E0A0E09E
:1010B000B0E0DC0199278827B22B2981AC01BD0162
:1010C000422B8A8190E0982F8827A0E0B0E0842B03
:1010D000952BA62BB72BBC01CD019F7027C061E0DB
:1010E00070E080E090E022C061E070E080E090E09D
:1010F0001DC061E070E080E090E018C061E070E049
:1011000080E090E013C061E070E080E090E00EC00D
:1011100061E070E080E090E009C061E070E080E0B4
:1011200090E004C061E070E080E090E00F900F90EC
:101130000F900F90DF91CF911F910F91FF90EF9043
:10114000BF90AF909F908F907F906F905F904F90E7
:101150000895CF92DF92EF92FF920F931F93CF9358
:10116000DF93FC01C081D181219609F45EC04485E2
:10117000558566857785411551056105710509F429
:1011800056C08C01CE018F709927892B09F048C079
:10119000E0909F00F090A0004F5F5F4F6F4F7F4F38
:1011A0004487558766877787408551856285738533
:1011B000411551056105710539F4F7018481958167
:1011C000C817D907B0F52CC0F701828190E00197CC
:1011D0009E01329522952F7023273F70232782236B
:1011E0009323892BE9F4CB01BA0188DE62307105C3
:1011F0008105910500F1F701C680D780E084F18474
:101200006C157D058E059F05C0F4F8016087718718
:10121000828793879FDDF801648775878687978724
:10122000F801D183C08380E009C083E007C083E078
:1012300005C083E003C081E001C083E0DF91CF916E
:101240001F910F91FF90EF90DF90CF9008952F9214
:101250003F924F925F926F927F928F929F92AF9246
:10126000BF92CF92DF92EF92FF920F931F93CF9393
:10127000DF936C017B015A01DA018C91803231F4E9
:10128000FA0131965F0181918032E1F38F3219F4D6
:10129000BFEFAB1ABB0AF6011482158216821782C1
:1012A000D5018C91813230F4C6017EDD482FF701E3
:1012B0001082C7C06894992495F8612C68944424DE
:1012C00043F8242C0F2EFBE03F2EF02D5524539491
:1012D000E7012B96852C762CF601A281B381FD01C6
:1012E000CD010B9691928E179F07E1F7962D862DD3
:1012F000342D01C0822F21E0280FF501E80FF11DE8
:101300008081813290F08F3281F08E3209F490C06A
:10131000931758F44FE9480F4A3108F48052FD0101
:10132000E90FF11D80839F5FE5CFA20EB11C952DC3
:10133000813208F0962D1B969C93C60135DD482F0F
:1013400081117CC0D6012D913C9111972F703327CC
:10135000220F331F22953295307F3227207F32278C
:101360001C964D915D916D917C911F9700E210E06C
:10137000C7018DDC482D811101C0472D41115EC090
:10138000F70180818823B9F0538553FD0EC0D60143
:1013900012968D919C911397DC0103C0CE17DF0745
:1013A000A1F031912D913217C9F3C601D2DE482F39
:1013B000882341F243C0D6011296ED91FC91139718
:1013C0008385882389F143E03CC0FC01838581113A
:1013D00038C054FF2BC0D70155964C91559750E01B
:1013E000542F442754968C915497482B60E070E01A
:1013F000BA01552744275B962C915B9730E0322F3A
:1014000022275A968C91F901E82BCF01A0E0B0E099
:10141000482B592B6A2B7B2BD60114964D935D9349
:101420006D937C93179758CF44E00BC044E009C0FC
:10143000383009F07ACF922D332D5CCF433009F448
:10144000BACF842FDF91CF911F910F91FF90EF9032
:10145000DF90CF90BF90AF909F908F907F906F90D4
:101460005F904F903F902F9008954F925F926F92B0
:101470007F928F929F92AF92BF92DF92EF92FF92F4
:101480000F931F93CF93DF93CDB7DEB7A8970FB617
:10149000F894DEBF0FBECDBF1092A00010929F0047
:1014A000009709F40AC17C0127DB80FD08C140E0F8
:1014B00050E0BA01CE010196CFDC813079F500E130
:1014C00010E02EEB31E040E050E0BA01CE01019691
:1014D000DEDB8111F6C08D81882309F4F4C08C8590
:1014E0008B84912CA12CB12C540199248824B82AE6
:1014F0008985A5019401282BDA01C9018A84912CE0
:10150000982C8824A12CB12C882A992AAA2ABB2A93
:10151000B501A401CE0101969FDC03C0812C912C62
:101520005401833009F4D1C08111D1C004E210E02C
:101530002DE030E0B501A401CE010196A8DB8111B8
:10154000C8C02B8530E0322F22278A85282B40E027
:1015500050E02115310541055105C1F48B8D2A8DCF
:10156000422F50E060E070E0BA0155274427782B05
:10157000888D482B898D90E0982F8827A0E0B0E0D7
:101580009A01AB01282B392B4A2B5B2BAC81B0E0A5
:1015900022D46DA37EA38FA398A74B8150E0542F34
:1015A00044278A81482B60E070E0840E951EA61EB9
:1015B000B71EF70182869386A486B586D980D2822B
:1015C000AE81B0E0BA2FAA278D81A82BB583A48362
:1015D000888590E0982F88272F81822B8C0120E02E
:1015E00030E00115110521053105C9F48F890E89F7
:1015F00010E020E030E0980111270027382B8C897B
:1016000028013901482A2D89E22FF0E03E2F2227B8
:10161000890120E030E00429152926293729B295CF
:10162000A295AF70AB27BF70AB272D01612C712C39
:10163000D901C801841B950BA60BB70B2DA13EA1A8
:101640004FA158A5821B930BA40BB50BBC01CD0178
:1016500064197509860997092D2D30E040E050E0A6
:1016600070D3BA01A9014E5F5F4F6F4F7F4FF701F3
:101670004683578360877187473FFFE05F076105B7
:10168000710508F454C082E053C0840C951CA61C5C
:10169000B71C4DA05EA06FA078A4480C591C6A1C12
:1016A0007B1CF701428A538A648A758A1182F09200
:1016B000A000E0929F0080E041C080E03FC082E057
:1016C0003DC081E03BC087E039C081E037C087E0A2
:1016D00035C081E033C083E0F70180832BA18AA16C
:1016E00090E0A0E0B0E0DC0199278827B22B28A188
:1016F000822B49A150E0542F442760E070E0842BF6
:10170000952BA62BB72B86879787A08BB18BBDCF48
:10171000F70180838DA19EA1AFA1B8A5880D991D69
:10172000AA1DBB1D86879787A08BB18BAECF81E0AA
:10173000473F5F4F6105710570F6EACFA8960FB677
:10174000F894DEBF0FBECDBFDF91CF911F910F91F7
:10175000FF90EF90DF90BF90AF909F908F907F9021
:101760006F905F904F9008950F931F93CF93DF93E7
:10177000CDB7DEB7EC970FB6F894DEBF0FBECDBF86
:1017800000919F001091A0000115110509F452C0AD
:10179000AC01F8011182CE0141969C838B83BE017E
:1017A000635E7F4F409753DD811149C08D8D882343
:1017B00009F442C088A584FD41C08AA990E0982F11
:1017C000882729A9822BA0E0B0E0DC01992788278F
:1017D00048AD50E0542F44272FA9422B60E070E021
:1017E000842B952BA62BB72BF801868F978FA0A360
:1017F000B1A32CAD8BAD90E0A0E0B0E0DC01992767
:101800008827B22B29AD822B4AAD50E0542F4427B4
:1018100060E070E0842B952BA62BB72B828F938FE3
:10182000A48FB58F168A178A108E118E81E081835E
:1018300080E005C086E003C083E001C083E0EC9651
:101840000FB6F894DEBF0FBECDBFDF91CF911F91D1
:101850000F9108952F923F924F925F926F927F92D5
:101860008F929F92AF92BF92CF92DF92EF92FF92B0
:101870000F931F93CF93DF932C016B013A01E090FC
:101880009F00F090A000FA0111821082E114F1048F
:1018900009F4B1C0F701818180FFAFC0828D938DC3
:1018A000A48DB58D46895789608D718D841B950BEC
:1018B000A60BB70BA60160E070E084179507A6079A
:1018C000B70708F46C01C114D10409F498C052019F
:1018D000812C6894992491F8312C212CF701868968
:1018E0009789A08DB18DAC01BD0151706627772716
:1018F000452B462B472B09F040C0C281C150AC019B
:10190000BD01032E39E076956795579547953A9531
:10191000D1F7302DC423D1F4892B8A2B8B2B29F4BA
:10192000668D778D80A191A106C0F70162A173A198
:1019300084A195A1E3DA623071058105910508F46F
:1019400056C0F70162A373A384A395A3F70162A114
:1019500073A184A195A1FED9611571058105910539
:1019600009F445C0DC01CB018C0F911DA11DB11DF7
:10197000F70186A397A3A0A7B1A7F7012689378906
:101980003170E401C21BD30BCC16DD0608F4E6016E
:10199000F70146A157A160A571A54114510419F0A2
:1019A0008A2D9B2D02C0832D922D8E0170D981111D
:1019B0001EC0F70186899789A08DB18D8C0F9D1F60
:1019C000A11DB11D868B978BA08FB18FAC0EBD1E54
:1019D000CC1ADD0AF30180819181C80FD91FD18310
:1019E000C083C114D10409F079CF80E009C0F701A8
:1019F000118281E005C086E003C085E001C080E07F
:101A0000DF91CF911F910F91FF90EF90DF90CF90DA
:101A1000BF90AF909F908F907F906F905F904F900E
:101A20003F902F9008950F931F93CF93DF93CDB7DF
:101A3000DEB7AC970FB6F894DEBF0FBECDBF2091D6
:101A40009F003091A000232BA9F1AB018C01CE01A6
:101A50000196F80193838283BE01635F7F4FC801C3
:101A6000F6DB811123C08D85882341F1888D84FFA9
:101A700023C08AA190E0982F882729A1822BA0E07B
:101A8000B0E0DC019927882748A550E0542F44276F
:101A90002FA1422B60E070E0842B952BA62BB72B57
:101AA000F80184839583A683B78308C0833049F403
:101AB00084E007C086E005C084E003C0C80174D993
:101AC000F5CFAC960FB6F894DEBF0FBECDBFDF9159
:101AD000CF911F910F910895AF92BF92CF92DF9255
:101AE000EF92FF920F931F93CF93DF93CDB7DEB7A3
:101AF000AC970FB6F894DEBF0FBECDBF20919F000C
:101B00003091A000232B09F4CEC06B017C01CE01E3
:101B10000196D70113969C938E931297672B61F5CC
:101B2000C70142D9982FD0C0F701208131812F7091
:101B30003327220F331F22953295307F3227207FA3
:101B4000322700E210E0CE010D96A1D89B2D811125
:101B500001C09A2D911123C08D85882341F1853EC6
:101B600029F08E3219F0888D83FF9FC0C701F1DA0A
:101B7000982F882329F013C093E0BB24B394A12CA1
:101B8000D7011C964D915D916D917C911F974115E8
:101B900051056105710541F6992309F486C093301A
:101BA00031F0F70114861586168617868DC0D70189
:101BB0001C961D921D921D921C921F97F60139963C
:101BC00065C08D858032C9F0BE01625F7F4FAE0176
:101BD0004B5E5F4F95EE05C0DB018D91BD018032FC
:101BE00061F0853009F4892F31969F012150310928
:101BF000D9018C936417750779F78D89803299F034
:101C00009EE290839F012E5F3F4F81838E898032B9
:101C100031F02F5F3F4F82838F89803211F4F901B9
:101C200002C083833496888DD60118968C932CA598
:101C30008BA590E0A0E0B0E0DC0199278827B22BCB
:101C400029A5822B4AA550E0542F442760E070E07C
:101C5000482B592B6A2B7B2BD6014D935D936D93AB
:101C60007C9313978EA190E0982F88272DA1822B2B
:101C700015969C938E9314978CA190E0982F8827AB
:101C80002BA1822B17969C938E9316971082C701D7
:101C900060DA982F8330C1F4F70114861586168612
:101CA000178690E011C096E00FC0F6013996D70173
:101CB0001C964D915D916D917C911F97452B462B04
:101CC000472B09F07ECFE2CF892FAC960FB6F89460
:101CD000DEBF0FBECDBFDF91CF911F910F91FF905F
:101CE000EF90DF90CF90BF90AF90089587E689B9CD
:101CF000599888E98AB986E880BD08955D9BFECF32
:101D00008CB908950F931F93CF93FC018081882392
:101D100051F08F01C0E0F2DFCF5FF801EC0FF11D51
:101D200080818111F8CFCF911F910F91089587B3D2
:101D3000896287BBBC9888B3896388BB80E58DB90D
:101D40000895A1E21A2EAA1BBB1BFD010DC0AA1FFC
:101D5000BB1FEE1FFF1FA217B307E407F50720F014
:101D6000A21BB30BE40BF50B661F771F881F991F8F
:101D70001A9469F760957095809590959B01AC01D8
:101D8000BD01CF010895052E97FB16F400940FD0E6
:101D900057FD05D0D6DF07FC02D046F408C05095A9
:101DA0004095309521953F4F4F4F5F4F0895909547
:101DB0008095709561957F4F8F4F9F4F0895A29F9B
:101DC000B001B39FC001A39F01D0B29F700D811DD0
:101DD0001124911D0895F3DFA59F900DB49F900DE0
:0E1DE000A49F800D911D11240895F894FFCF4B
:101DEE004343504D2F000000000000000000000093
:101DFE0000000153616D706C652072617465202D59
:101E0E0020004368616E202D20005443202D2000B9
:061E1E004343504D00009B
:00000001FF
